{
  "contractName": "SupplyChain",
  "abi": [
    {
      "inputs": [
        {
          "internalType": "string",
          "name": "name_",
          "type": "string"
        },
        {
          "internalType": "string",
          "name": "email_",
          "type": "string"
        }
      ],
      "stateMutability": "nonpayable",
      "type": "constructor"
    },
    {
      "anonymous": false,
      "inputs": [
        {
          "indexed": false,
          "internalType": "string",
          "name": "name",
          "type": "string"
        },
        {
          "indexed": false,
          "internalType": "string",
          "name": "email",
          "type": "string"
        },
        {
          "indexed": false,
          "internalType": "enum Types.UserRole",
          "name": "role",
          "type": "uint8"
        }
      ],
      "name": "LostUser",
      "type": "event"
    },
    {
      "anonymous": false,
      "inputs": [
        {
          "indexed": false,
          "internalType": "string",
          "name": "name",
          "type": "string"
        },
        {
          "indexed": false,
          "internalType": "string",
          "name": "manufacturerName",
          "type": "string"
        },
        {
          "indexed": false,
          "internalType": "string",
          "name": "barcodeId",
          "type": "string"
        }
      ],
      "name": "NewProduct",
      "type": "event"
    },
    {
      "anonymous": false,
      "inputs": [
        {
          "indexed": false,
          "internalType": "string",
          "name": "name",
          "type": "string"
        },
        {
          "indexed": false,
          "internalType": "string",
          "name": "email",
          "type": "string"
        },
        {
          "indexed": false,
          "internalType": "enum Types.UserRole",
          "name": "role",
          "type": "uint8"
        }
      ],
      "name": "NewUser",
      "type": "event"
    },
    {
      "anonymous": false,
      "inputs": [
        {
          "indexed": false,
          "internalType": "string",
          "name": "name",
          "type": "string"
        },
        {
          "indexed": false,
          "internalType": "string",
          "name": "manufacturerName",
          "type": "string"
        },
        {
          "indexed": false,
          "internalType": "string",
          "name": "barcodeId",
          "type": "string"
        },
        {
          "indexed": false,
          "internalType": "string",
          "name": "buyerName",
          "type": "string"
        },
        {
          "indexed": false,
          "internalType": "string",
          "name": "buyerEmail",
          "type": "string"
        }
      ],
      "name": "ProductOwnershipTransfer",
      "type": "event"
    },
    {
      "inputs": [],
      "name": "getAllProducts",
      "outputs": [
        {
          "components": [
            {
              "internalType": "string",
              "name": "name",
              "type": "string"
            },
            {
              "internalType": "string",
              "name": "manufacturerName",
              "type": "string"
            },
            {
              "internalType": "address",
              "name": "manufacturer",
              "type": "address"
            },
            {
              "internalType": "bool",
              "name": "isInBatch",
              "type": "bool"
            },
            {
              "internalType": "uint256",
              "name": "batchCount",
              "type": "uint256"
            },
            {
              "internalType": "string",
              "name": "barcodeId",
              "type": "string"
            }
          ],
          "internalType": "struct Types.Product[]",
          "name": "",
          "type": "tuple[]"
        }
      ],
      "stateMutability": "view",
      "type": "function",
      "constant": true
    },
    {
      "inputs": [],
      "name": "getMyProducts",
      "outputs": [
        {
          "components": [
            {
              "internalType": "string",
              "name": "name",
              "type": "string"
            },
            {
              "internalType": "string",
              "name": "manufacturerName",
              "type": "string"
            },
            {
              "internalType": "address",
              "name": "manufacturer",
              "type": "address"
            },
            {
              "internalType": "bool",
              "name": "isInBatch",
              "type": "bool"
            },
            {
              "internalType": "uint256",
              "name": "batchCount",
              "type": "uint256"
            },
            {
              "internalType": "string",
              "name": "barcodeId",
              "type": "string"
            }
          ],
          "internalType": "struct Types.Product[]",
          "name": "",
          "type": "tuple[]"
        }
      ],
      "stateMutability": "view",
      "type": "function",
      "constant": true
    },
    {
      "inputs": [
        {
          "internalType": "string",
          "name": "barcodeId_",
          "type": "string"
        }
      ],
      "name": "getSingleProduct",
      "outputs": [
        {
          "components": [
            {
              "internalType": "string",
              "name": "name",
              "type": "string"
            },
            {
              "internalType": "string",
              "name": "manufacturerName",
              "type": "string"
            },
            {
              "internalType": "address",
              "name": "manufacturer",
              "type": "address"
            },
            {
              "internalType": "bool",
              "name": "isInBatch",
              "type": "bool"
            },
            {
              "internalType": "uint256",
              "name": "batchCount",
              "type": "uint256"
            },
            {
              "internalType": "string",
              "name": "barcodeId",
              "type": "string"
            }
          ],
          "internalType": "struct Types.Product",
          "name": "",
          "type": "tuple"
        },
        {
          "components": [
            {
              "components": [
                {
                  "internalType": "address",
                  "name": "id_",
                  "type": "address"
                },
                {
                  "internalType": "uint256",
                  "name": "date",
                  "type": "uint256"
                }
              ],
              "internalType": "struct Types.UserHistory",
              "name": "manufacturer",
              "type": "tuple"
            },
            {
              "components": [
                {
                  "internalType": "address",
                  "name": "id_",
                  "type": "address"
                },
                {
                  "internalType": "uint256",
                  "name": "date",
                  "type": "uint256"
                }
              ],
              "internalType": "struct Types.UserHistory",
              "name": "supplier",
              "type": "tuple"
            },
            {
              "components": [
                {
                  "internalType": "address",
                  "name": "id_",
                  "type": "address"
                },
                {
                  "internalType": "uint256",
                  "name": "date",
                  "type": "uint256"
                }
              ],
              "internalType": "struct Types.UserHistory",
              "name": "vendor",
              "type": "tuple"
            },
            {
              "components": [
                {
                  "internalType": "address",
                  "name": "id_",
                  "type": "address"
                },
                {
                  "internalType": "uint256",
                  "name": "date",
                  "type": "uint256"
                }
              ],
              "internalType": "struct Types.UserHistory[]",
              "name": "customers",
              "type": "tuple[]"
            }
          ],
          "internalType": "struct Types.ProductHistory",
          "name": "",
          "type": "tuple"
        }
      ],
      "stateMutability": "view",
      "type": "function",
      "constant": true
    },
    {
      "inputs": [
        {
          "components": [
            {
              "internalType": "string",
              "name": "name",
              "type": "string"
            },
            {
              "internalType": "string",
              "name": "manufacturerName",
              "type": "string"
            },
            {
              "internalType": "address",
              "name": "manufacturer",
              "type": "address"
            },
            {
              "internalType": "bool",
              "name": "isInBatch",
              "type": "bool"
            },
            {
              "internalType": "uint256",
              "name": "batchCount",
              "type": "uint256"
            },
            {
              "internalType": "string",
              "name": "barcodeId",
              "type": "string"
            }
          ],
          "internalType": "struct Types.Product",
          "name": "product_",
          "type": "tuple"
        },
        {
          "internalType": "uint256",
          "name": "currentTime_",
          "type": "uint256"
        }
      ],
      "name": "addProduct",
      "outputs": [],
      "stateMutability": "nonpayable",
      "type": "function"
    },
    {
      "inputs": [
        {
          "internalType": "address",
          "name": "partyId_",
          "type": "address"
        },
        {
          "internalType": "string",
          "name": "barcodeId_",
          "type": "string"
        },
        {
          "internalType": "uint256",
          "name": "currentTime_",
          "type": "uint256"
        }
      ],
      "name": "sellProduct",
      "outputs": [],
      "stateMutability": "nonpayable",
      "type": "function"
    },
    {
      "inputs": [
        {
          "components": [
            {
              "internalType": "enum Types.UserRole",
              "name": "role",
              "type": "uint8"
            },
            {
              "internalType": "address",
              "name": "id_",
              "type": "address"
            },
            {
              "internalType": "string",
              "name": "name",
              "type": "string"
            },
            {
              "internalType": "string",
              "name": "email",
              "type": "string"
            }
          ],
          "internalType": "struct Types.UserDetails",
          "name": "user_",
          "type": "tuple"
        }
      ],
      "name": "addParty",
      "outputs": [],
      "stateMutability": "nonpayable",
      "type": "function"
    },
    {
      "inputs": [
        {
          "internalType": "address",
          "name": "id_",
          "type": "address"
        }
      ],
      "name": "getUserDetails",
      "outputs": [
        {
          "components": [
            {
              "internalType": "enum Types.UserRole",
              "name": "role",
              "type": "uint8"
            },
            {
              "internalType": "address",
              "name": "id_",
              "type": "address"
            },
            {
              "internalType": "string",
              "name": "name",
              "type": "string"
            },
            {
              "internalType": "string",
              "name": "email",
              "type": "string"
            }
          ],
          "internalType": "struct Types.UserDetails",
          "name": "",
          "type": "tuple"
        }
      ],
      "stateMutability": "view",
      "type": "function",
      "constant": true
    },
    {
      "inputs": [],
      "name": "getMyDetails",
      "outputs": [
        {
          "components": [
            {
              "internalType": "enum Types.UserRole",
              "name": "role",
              "type": "uint8"
            },
            {
              "internalType": "address",
              "name": "id_",
              "type": "address"
            },
            {
              "internalType": "string",
              "name": "name",
              "type": "string"
            },
            {
              "internalType": "string",
              "name": "email",
              "type": "string"
            }
          ],
          "internalType": "struct Types.UserDetails",
          "name": "",
          "type": "tuple"
        }
      ],
      "stateMutability": "view",
      "type": "function",
      "constant": true
    },
    {
      "inputs": [],
      "name": "getMyUsersList",
      "outputs": [
        {
          "components": [
            {
              "internalType": "enum Types.UserRole",
              "name": "role",
              "type": "uint8"
            },
            {
              "internalType": "address",
              "name": "id_",
              "type": "address"
            },
            {
              "internalType": "string",
              "name": "name",
              "type": "string"
            },
            {
              "internalType": "string",
              "name": "email",
              "type": "string"
            }
          ],
          "internalType": "struct Types.UserDetails[]",
          "name": "usersList_",
          "type": "tuple[]"
        }
      ],
      "stateMutability": "view",
      "type": "function",
      "constant": true
    }
  ],
  "bytecode": "0x60806040523480156200001157600080fd5b506040516200321838038062003218833981016040819052620000349162000326565b604080516080810182526000815233602082015290810183905260608101829052620000608162000069565b50505062000588565b60208101516001600160a01b03166200008157600080fd5b80516020820151620000949190620001cb565b15620000e65760405162461bcd60e51b815260206004820152601f60248201527f53616d65207573657220776974682073616d6520726f6c652065786973747300604482015260640160405180910390fd5b6020808201516001600160a01b0316600090815290819052604090208151815483929190829060ff1916600183600381111562000127576200012762000390565b0217905550602082015181546001600160a01b0390911661010002610100600160a81b03199091161781556040820151600182019062000168908262000435565b50606082015160028201906200017f908262000435565b5050506040808201516060830151835192517f71d9dffdac919adfd06ab94bdebcd997efa2ba73e829a41e63107c7f8ae330f693620001c09392916200052f565b60405180910390a150565b60006001600160a01b038216620001e157600080fd5b6001600160a01b038281166000908152602081905260409020546101009004161580159062000252575082600381111562000220576200022062000390565b6001600160a01b03831660009081526020819052604090205460ff16600381111562000250576200025062000390565b145b9392505050565b634e487b7160e01b600052604160045260246000fd5b60005b838110156200028c57818101518382015260200162000272565b50506000910152565b600082601f830112620002a757600080fd5b81516001600160401b0380821115620002c457620002c462000259565b604051601f8301601f19908116603f01168101908282118183101715620002ef57620002ef62000259565b816040528381528660208588010111156200030957600080fd5b6200031c8460208301602089016200026f565b9695505050505050565b600080604083850312156200033a57600080fd5b82516001600160401b03808211156200035257600080fd5b620003608683870162000295565b935060208501519150808211156200037757600080fd5b50620003868582860162000295565b9150509250929050565b634e487b7160e01b600052602160045260246000fd5b600181811c90821680620003bb57607f821691505b602082108103620003dc57634e487b7160e01b600052602260045260246000fd5b50919050565b601f8211156200043057600081815260208120601f850160051c810160208610156200040b5750805b601f850160051c820191505b818110156200042c5782815560010162000417565b5050505b505050565b81516001600160401b0381111562000451576200045162000259565b6200046981620004628454620003a6565b84620003e2565b602080601f831160018114620004a15760008415620004885750858301515b600019600386901b1c1916600185901b1785556200042c565b600085815260208120601f198616915b82811015620004d257888601518255948401946001909101908401620004b1565b5085821015620004f15787850151600019600388901b60f8161c191681555b5050505050600190811b01905550565b600081518084526200051b8160208601602086016200026f565b601f01601f19169290920160200192915050565b60608152600062000544606083018662000501565b828103602084015262000558818662000501565b915050600483106200057a57634e487b7160e01b600052602160045260246000fd5b826040830152949350505050565b612c8080620005986000396000f3fe608060405234801561001057600080fd5b50600436106100935760003560e01c8063431bbb7e11610066578063431bbb7e146100ff578063958583a514610114578063cc3d967b14610127578063e386cb5f1461013a578063fdca4ca31461014f57600080fd5b806302ee3a5214610098578063067f046a146100b657806306b7dd71146100cb57806316756b0e146100de575b600080fd5b6100a0610157565b6040516100ad91906122f4565b60405180910390f35b6100c96100c436600461245c565b61039f565b005b6100c96100d93660046124b3565b61058a565b6100f16100ec36600461256c565b610597565b6040516100ad9291906125a9565b6101076105b9565b6040516100ad919061271a565b6100c961012236600461273d565b6105f1565b610107610135366004612826565b610723565b61014261075c565b6040516100ad9190612841565b6100a0610767565b60606002805480602002602001604051908101604052809291908181526020016000905b8282101561039657838290600052602060002090600502016040518060c00160405290816000820180546101ae90612896565b80601f01602080910402602001604051908101604052809291908181526020018280546101da90612896565b80156102275780601f106101fc57610100808354040283529160200191610227565b820191906000526020600020905b81548152906001019060200180831161020a57829003601f168201915b5050505050815260200160018201805461024090612896565b80601f016020809104026020016040519081016040528092919081815260200182805461026c90612896565b80156102b95780601f1061028e576101008083540402835291602001916102b9565b820191906000526020600020905b81548152906001019060200180831161029c57829003601f168201915b505050918352505060028201546001600160a01b0381166020830152600160a01b900460ff16151560408201526003820154606082015260048201805460809092019161030590612896565b80601f016020809104026020016040519081016040528092919081815260200182805461033190612896565b801561037e5780601f106103535761010080835404028352916020019161037e565b820191906000526020600020905b81548152906001019060200180831161036157829003601f168201915b5050505050815250508152602001906001019061017b565b50505050905090565b6103a883610771565b6103eb5760405162461bcd60e51b815260206004820152600f60248201526e14185c9d1e481b9bdd08199bdd5b99608a1b60448201526064015b60405180910390fd5b6001600160a01b0383166000908152602081905260408082208151608081019092528054829060ff16600381111561042557610425612691565b600381111561043657610436612691565b8152815461010090046001600160a01b0316602082015260018201805460409092019161046290612896565b80601f016020809104026020016040519081016040528092919081815260200182805461048e90612896565b80156104db5780601f106104b0576101008083540402835291602001916104db565b820191906000526020600020905b8154815290600101906020018083116104be57829003601f168201915b505050505081526020016002820180546104f490612896565b80601f016020809104026020016040519081016040528092919081815260200182805461052090612896565b801561056d5780601f106105425761010080835404028352916020019161056d565b820191906000526020600020905b81548152906001019060200180831161055057829003601f168201915b5050505050815250509050610584848483856107b6565b50505050565b6105948133610cb9565b50565b61059f6120f3565b6105a7612134565b6105b083610dd4565b91509150915091565b6105e360408051608081019091528060008152600060208201526060604082018190529081015290565b6105ec33611109565b905090565b3361063e5760405162461bcd60e51b815260206004820152601960248201527f53656e6465722773206164647265737320697320456d7074790000000000000060448201526064016103e2565b3360009081526020819052604090205461010090046001600160a01b03166106a85760405162461bcd60e51b815260206004820152601760248201527f557365722773206164647265737320697320456d70747900000000000000000060448201526064016103e2565b3360009081526020819052604081205460ff1660038111156106cc576106cc612691565b146107155760405162461bcd60e51b815260206004820152601960248201527813db9b1e481b585b9d599858dd1d5c995c8818d85b88185919603a1b60448201526064016103e2565b61071f8282611171565b5050565b61074d60408051608081019091528060008152600060208201526060604082018190529081015290565b61075682611109565b92915050565b60606105ec3361141b565b60606105ec61166d565b6000806001600160a01b0383166107885792915050565b6001600160a01b03838116600090815260208190526040902054610100900416156107565750600192915050565b826108796003826040516107ca91906128d0565b908152602001604051809103902060040180546107e690612896565b80601f016020809104026020016040519081016040528092919081815260200182805461081290612896565b801561085f5780601f106108345761010080835404028352916020019161085f565b820191906000526020600020905b81548152906001019060200180831161084257829003601f168201915b505050505060405180602001604052806000815250611a11565b1561088357600080fd5b600060038560405161089591906128d0565b90815260200160405180910390206040518060c00160405290816000820180546108be90612896565b80601f01602080910402602001604051908101604052809291908181526020018280546108ea90612896565b80156109375780601f1061090c57610100808354040283529160200191610937565b820191906000526020600020905b81548152906001019060200180831161091a57829003601f168201915b5050505050815260200160018201805461095090612896565b80601f016020809104026020016040519081016040528092919081815260200182805461097c90612896565b80156109c95780601f1061099e576101008083540402835291602001916109c9565b820191906000526020600020905b8154815290600101906020018083116109ac57829003601f168201915b505050918352505060028201546001600160a01b0381166020830152600160a01b900460ff161515604082015260038201546060820152600482018054608090920191610a1590612896565b80601f0160208091040260200160405190810160405280929190818152602001828054610a4190612896565b8015610a8e5780601f10610a6357610100808354040283529160200191610a8e565b820191906000526020600020905b815481529060010190602001808311610a7157829003601f168201915b505050919092525050604080518082019091526020808801516001600160a01b0316825281018690529192506001905085516003811115610ad157610ad1612691565b03610b285780600587604051610ae791906128d0565b9081526040516020918190038201902082516002820180546001600160a01b0319166001600160a01b03909216919091179055910151600390910155610c52565b600285516003811115610b3d57610b3d612691565b03610b945780600587604051610b5391906128d0565b9081526040516020918190038201902082516004820180546001600160a01b0319166001600160a01b03909216919091179055910151600590910155610c52565b600385516003811115610ba957610ba9612691565b03610c1457600586604051610bbe91906128d0565b90815260405160209181900382019020600601805460018082018355600092835291839020845160029092020180546001600160a01b0319166001600160a01b0390921691909117815591830151910155610c52565b60405162461bcd60e51b81526020600482015260136024820152722737ba103b30b634b21037b832b930ba34b7b760691b60448201526064016103e2565b610c5d338888611a6a565b7fe8255e77752732c43d46ff270f4248d70355ce53c38623a7c57de589c7ad0d56826000015183602001518460a0015188604001518960600151604051610ca89594939291906128ec565b60405180910390a150505050505050565b6001600160a01b038116610ccc57600080fd5b60208201516001600160a01b0316610ce357600080fd5b6000610cee82611d4b565b516003811115610d0057610d00612691565b148015610d1f5750600182516003811115610d1d57610d1d612691565b145b15610c14576001600160a01b0381166000908152600160208181526040832080548084018255908452922084516003938402909101805486949193849260ff19909216918490811115610d7457610d74612691565b0217905550602082015181546001600160a01b0390911661010002610100600160a81b031990911617815560408201516001820190610db390826129a8565b5060608201516002820190610dc890826129a8565b50505061071f82611f1b565b610ddc6120f3565b610de4612134565b600383604051610df491906128d0565b9081526020016040518091039020600584604051610e1291906128d0565b9081526020016040518091039020816040518060c0016040529081600082018054610e3c90612896565b80601f0160208091040260200160405190810160405280929190818152602001828054610e6890612896565b8015610eb55780601f10610e8a57610100808354040283529160200191610eb5565b820191906000526020600020905b815481529060010190602001808311610e9857829003601f168201915b50505050508152602001600182018054610ece90612896565b80601f0160208091040260200160405190810160405280929190818152602001828054610efa90612896565b8015610f475780601f10610f1c57610100808354040283529160200191610f47565b820191906000526020600020905b815481529060010190602001808311610f2a57829003601f168201915b505050918352505060028201546001600160a01b0381166020830152600160a01b900460ff161515604082015260038201546060820152600482018054608090920191610f9390612896565b80601f0160208091040260200160405190810160405280929190818152602001828054610fbf90612896565b801561100c5780601f10610fe15761010080835404028352916020019161100c565b820191906000526020600020905b815481529060010190602001808311610fef57829003601f168201915b5050509190925250506040805160c08101825284546001600160a01b0390811660808301908152600187015460a084015282528251808401845260028701548216815260038701546020828101919091528084019190915283518085018552600488015490921682526005870154828201528284019190915260068601805484518184028101840190955280855295975091948694506060860193929160009084015b828210156110f7576000848152602090819020604080518082019091526002850290910180546001600160a01b031682526001908101548284015290835290920191016110af565b50505091525092969095509350505050565b61113360408051608081019091528060008152600060208201526060604082018190529081015290565b6001600160a01b03821661114657600080fd5b600061115183611d4b565b602001516001600160a01b03160361116857600080fd5b61075682611d4b565b8160a001516111896003826040516107ca91906128d0565b61119257600080fd5b60408301516001600160a01b031633146111ea5760405162461bcd60e51b815260206004820152601960248201527813db9b1e481b585b9d599858dd1d5c995c8818d85b88185919603a1b60448201526064016103e2565b60028054600181018255600091909152835184916005027f405787fa12a823e0f2b7631cc41b3ba8828b3321ca811111fa75cd3aa3bb5ace0190819061123090826129a8565b506020820151600182019061124590826129a8565b50604082015160028201805460608501511515600160a01b026001600160a81b03199091166001600160a01b03909316929092179190911790556080820151600382015560a0820151600482019061129d90826129a8565b5050508260038460a001516040516112b591906128d0565b908152604051908190036020019020815181906112d290826129a8565b50602082015160018201906112e790826129a8565b50604082015160028201805460608501511515600160a01b026001600160a81b03199091166001600160a01b03909316929092179190911790556080820151600382015560a0820151600482019061133f90826129a8565b50506040805180820182523381526020810185905260a0860151915190925060059161136a916128d0565b9081526040805160209281900383019020835181546001600160a01b0319166001600160a01b03909116178155928201516001938401553360009081526004835290812060a087015181549485018255908252919020909101906113ce90826129a8565b507fa7bfe4e266155b451ea2f70cfe3c91628080e7dc35c6aec52839101d5002a105836000015184602001518560a0015160405161140e93929190612a68565b60405180910390a1505050565b60606001600160a01b0382166114615760405162461bcd60e51b815260206004820152600b60248201526a496420697320656d70747960a81b60448201526064016103e2565b600061146c83611d4b565b51600381111561147e5761147e612691565b03610c14576001600160a01b038216600090815260016020908152604080832080548251818502810185019093528083529193909284015b8282101561165d57838290600052602060002090600302016040518060800160405290816000820160009054906101000a900460ff1660038111156114fd576114fd612691565b600381111561150e5761150e612691565b8152815461010090046001600160a01b0316602082015260018201805460409092019161153a90612896565b80601f016020809104026020016040519081016040528092919081815260200182805461156690612896565b80156115b35780601f10611588576101008083540402835291602001916115b3565b820191906000526020600020905b81548152906001019060200180831161159657829003601f168201915b505050505081526020016002820180546115cc90612896565b80601f01602080910402602001604051908101604052809291908181526020018280546115f890612896565b80156116455780601f1061161a57610100808354040283529160200191611645565b820191906000526020600020905b81548152906001019060200180831161162857829003601f168201915b505050505081525050815260200190600101906114b6565b505050509050919050565b919050565b336000908152600460209081526040808320805482518185028101850190935280835260609493849084015b828210156117455783829060005260206000200180546116b890612896565b80601f01602080910402602001604051908101604052809291908181526020018280546116e490612896565b80156117315780601f1061170657610100808354040283529160200191611731565b820191906000526020600020905b81548152906001019060200180831161171457829003601f168201915b505050505081526020019060010190611699565b5050505090506000815167ffffffffffffffff8111156117675761176761236d565b6040519080825280602002602001820160405280156117a057816020015b61178d6120f3565b8152602001906001900390816117855790505b50905060005b8251811015611a0a5760038382815181106117c3576117c3612aab565b60200260200101516040516117d891906128d0565b90815260200160405180910390206040518060c001604052908160008201805461180190612896565b80601f016020809104026020016040519081016040528092919081815260200182805461182d90612896565b801561187a5780601f1061184f5761010080835404028352916020019161187a565b820191906000526020600020905b81548152906001019060200180831161185d57829003601f168201915b5050505050815260200160018201805461189390612896565b80601f01602080910402602001604051908101604052809291908181526020018280546118bf90612896565b801561190c5780601f106118e15761010080835404028352916020019161190c565b820191906000526020600020905b8154815290600101906020018083116118ef57829003601f168201915b505050918352505060028201546001600160a01b0381166020830152600160a01b900460ff16151560408201526003820154606082015260048201805460809092019161195890612896565b80601f016020809104026020016040519081016040528092919081815260200182805461198490612896565b80156119d15780601f106119a6576101008083540402835291602001916119d1565b820191906000526020600020905b8154815290600101906020018083116119b457829003601f168201915b5050505050815250508282815181106119ec576119ec612aab565b60200260200101819052508080611a0290612ad7565b9150506117a6565b5092915050565b600081604051602001611a2491906128d0565b6040516020818303038152906040528051906020012083604051602001611a4b91906128d0565b6040516020818303038152906040528051906020012014905092915050565b6001600160a01b038216600090815260046020908152604082208054600181018255908352912001611a9c82826129a8565b506001600160a01b038316600090815260046020908152604080832080548251818502810185019093528083529192909190849084015b82821015611b7f578382906000526020600020018054611af290612896565b80601f0160208091040260200160405190810160405280929190818152602001828054611b1e90612896565b8015611b6b5780601f10611b4057610100808354040283529160200191611b6b565b820191906000526020600020905b815481529060010190602001808311611b4e57829003601f168201915b505050505081526020019060010190611ad3565b505050509050600081516001611b959190612af0565b905060005b8251811015611be557611bc6838281518110611bb857611bb8612aab565b602002602001015185611a11565b15611bd357809150611be5565b80611bdd81612ad7565b915050611b9a565b5081518110611bf657611bf6612b03565b8151600103611c25576001600160a01b0385166000908152600460205260408120611c209161219d565b611d44565b6001600160a01b03851660009081526004602052604090208251611c4b90600190612b19565b81548110611c5b57611c5b612aab565b9060005260206000200160046000876001600160a01b03166001600160a01b031681526020019081526020016000208281548110611c9b57611c9b612aab565b906000526020600020019081611cb19190612b2c565b506001600160a01b03851660009081526004602052604090208251611cd890600190612b19565b81548110611ce857611ce8612aab565b906000526020600020016000611cfe91906121bb565b6001600160a01b0385166000908152600460205260409020805480611d2557611d25612bff565b600190038181906000526020600020016000611d4191906121bb565b90555b5050505050565b611d7560408051608081019091528060008152600060208201526060604082018190529081015290565b6001600160a01b038216611d8857600080fd5b6001600160a01b038216600090815260208190526040908190208151608081019092528054829060ff166003811115611dc357611dc3612691565b6003811115611dd457611dd4612691565b8152815461010090046001600160a01b03166020820152600182018054604090920191611e0090612896565b80601f0160208091040260200160405190810160405280929190818152602001828054611e2c90612896565b8015611e795780601f10611e4e57610100808354040283529160200191611e79565b820191906000526020600020905b815481529060010190602001808311611e5c57829003601f168201915b50505050508152602001600282018054611e9290612896565b80601f0160208091040260200160405190810160405280929190818152602001828054611ebe90612896565b8015611f0b5780601f10611ee057610100808354040283529160200191611f0b565b820191906000526020600020905b815481529060010190602001808311611eee57829003601f168201915b5050505050815250509050919050565b60208101516001600160a01b0316611f3257600080fd5b611f448160000151826020015161206d565b15611f915760405162461bcd60e51b815260206004820152601f60248201527f53616d65207573657220776974682073616d6520726f6c65206578697374730060448201526064016103e2565b6020808201516001600160a01b0316600090815290819052604090208151815483929190829060ff19166001836003811115611fcf57611fcf612691565b0217905550602082015181546001600160a01b0390911661010002610100600160a81b03199091161781556040820151600182019061200e90826129a8565b506060820151600282019061202390826129a8565b5050506040808201516060830151835192517f71d9dffdac919adfd06ab94bdebcd997efa2ba73e829a41e63107c7f8ae330f693612062939291612c15565b60405180910390a150565b60006001600160a01b03821661208257600080fd5b6001600160a01b03828116600090815260208190526040902054610100900416158015906120ec57508260038111156120bd576120bd612691565b6001600160a01b03831660009081526020819052604090205460ff1660038111156120ea576120ea612691565b145b9392505050565b6040518060c00160405280606081526020016060815260200160006001600160a01b0316815260200160001515815260200160008152602001606081525090565b6040805160c0810190915260006080820181815260a083019190915281908152602001612171604080518082019091526000808252602082015290565b8152602001612190604080518082019091526000808252602082015290565b8152602001606081525090565b508054600082559060005260206000209081019061059491906121f5565b5080546121c790612896565b6000825580601f106121d7575050565b601f0160209004906000526020600020908101906105949190612216565b8082111561221257600061220982826121bb565b506001016121f5565b5090565b5b808211156122125760008155600101612217565b60005b8381101561224657818101518382015260200161222e565b50506000910152565b6000815180845261226781602086016020860161222b565b601f01601f19169290920160200192915050565b6000815160c0845261229060c085018261224f565b9050602083015184820360208601526122a9828261224f565b91505060018060a01b0360408401511660408501526060830151151560608501526080830151608085015260a083015184820360a08601526122eb828261224f565b95945050505050565b6000602080830181845280855180835260408601915060408160051b870101925083870160005b8281101561234957603f1988860301845261233785835161227b565b9450928501929085019060010161231b565b5092979650505050505050565b80356001600160a01b038116811461166857600080fd5b634e487b7160e01b600052604160045260246000fd5b6040516080810167ffffffffffffffff811182821017156123a6576123a661236d565b60405290565b60405160c0810167ffffffffffffffff811182821017156123a6576123a661236d565b600082601f8301126123e057600080fd5b813567ffffffffffffffff808211156123fb576123fb61236d565b604051601f8301601f19908116603f011681019082821181831017156124235761242361236d565b8160405283815286602085880101111561243c57600080fd5b836020870160208301376000602085830101528094505050505092915050565b60008060006060848603121561247157600080fd5b61247a84612356565b9250602084013567ffffffffffffffff81111561249657600080fd5b6124a2868287016123cf565b925050604084013590509250925092565b6000602082840312156124c557600080fd5b813567ffffffffffffffff808211156124dd57600080fd5b90830190608082860312156124f157600080fd5b6124f9612383565b82356004811061250857600080fd5b815261251660208401612356565b602082015260408301358281111561252d57600080fd5b612539878286016123cf565b60408301525060608301358281111561255157600080fd5b61255d878286016123cf565b60608301525095945050505050565b60006020828403121561257e57600080fd5b813567ffffffffffffffff81111561259557600080fd5b6125a1848285016123cf565b949350505050565b600060408083526125bc8184018661227b565b60208482038186015260e082016125e783885180516001600160a01b03168252602090810151910152565b8187015161260a8585018280516001600160a01b03168252602090810151910152565b508387015180516001600160a01b031660808501526020015160a0840152606087015160e060c085015280519182905282810193600092610100909101905b808410156126835761266f82875180516001600160a01b03168252602090810151910152565b948401946001939093019290860190612649565b509998505050505050505050565b634e487b7160e01b600052602160045260246000fd5b600481106126c557634e487b7160e01b600052602160045260246000fd5b9052565b6126d48282516126a7565b60018060a01b0360208201511660208301526000604082015160806040850152612701608085018261224f565b9050606083015184820360608601526122eb828261224f565b6020815260006120ec60208301846126c9565b8035801515811461166857600080fd5b6000806040838503121561275057600080fd5b823567ffffffffffffffff8082111561276857600080fd5b9084019060c0828703121561277c57600080fd5b6127846123ac565b82358281111561279357600080fd5b61279f888286016123cf565b8252506020830135828111156127b457600080fd5b6127c0888286016123cf565b6020830152506127d260408401612356565b60408201526127e36060840161272d565b60608201526080830135608082015260a08301358281111561280457600080fd5b612810888286016123cf565b60a0830152509660209590950135955050505050565b60006020828403121561283857600080fd5b6120ec82612356565b6000602080830181845280855180835260408601915060408160051b870101925083870160005b8281101561234957603f198886030184526128848583516126c9565b94509285019290850190600101612868565b600181811c908216806128aa57607f821691505b6020821081036128ca57634e487b7160e01b600052602260045260246000fd5b50919050565b600082516128e281846020870161222b565b9190910192915050565b60a0815260006128ff60a083018861224f565b8281036020840152612911818861224f565b90508281036040840152612925818761224f565b90508281036060840152612939818661224f565b9050828103608084015261294d818561224f565b98975050505050505050565b601f8211156129a357600081815260208120601f850160051c810160208610156129805750805b601f850160051c820191505b8181101561299f5782815560010161298c565b5050505b505050565b815167ffffffffffffffff8111156129c2576129c261236d565b6129d6816129d08454612896565b84612959565b602080601f831160018114612a0b57600084156129f35750858301515b600019600386901b1c1916600185901b17855561299f565b600085815260208120601f198616915b82811015612a3a57888601518255948401946001909101908401612a1b565b5085821015612a585787850151600019600388901b60f8161c191681555b5050505050600190811b01905550565b606081526000612a7b606083018661224f565b8281036020840152612a8d818661224f565b90508281036040840152612aa1818561224f565b9695505050505050565b634e487b7160e01b600052603260045260246000fd5b634e487b7160e01b600052601160045260246000fd5b600060018201612ae957612ae9612ac1565b5060010190565b8082018082111561075657610756612ac1565b634e487b7160e01b600052600160045260246000fd5b8181038181111561075657610756612ac1565b818103612b37575050565b612b418254612896565b67ffffffffffffffff811115612b5957612b5961236d565b612b67816129d08454612896565b6000601f821160018114612b9b5760008315612b835750848201545b600019600385901b1c1916600184901b178455611d44565b600085815260209020601f19841690600086815260209020845b83811015612bd55782860154825560019586019590910190602001612bb5565b5085831015612a585793015460001960f8600387901b161c19169092555050600190811b01905550565b634e487b7160e01b600052603160045260246000fd5b606081526000612c28606083018661224f565b8281036020840152612c3a818661224f565b9150506125a160408301846126a756fea264697066735822122014b58b388844a70e609bf32de5f1553f3e3fb091c60ab770dda03757ab7dd43964736f6c63430008110033",
  "immutableReferences": {},
  "source": "// SPDX-License-Identifier: GPL-3.0\npragma experimental ABIEncoderV2;\npragma solidity >=0.4.25 <0.9.0;\n\nimport \"./Products.sol\";\nimport \"./Users.sol\";\n\ncontract SupplyChain is Users, Products {\n    constructor(string memory name_, string memory email_) {\n        Types.UserDetails memory mn_ = Types.UserDetails({\n            role: Types.UserRole.Manufacturer,\n            id_: msg.sender,\n            name: name_,\n            email: email_\n        });\n        add(mn_);\n    }\n\n    function getAllProducts() public view returns (Types.Product[] memory) {\n        return products;\n    }\n\n    function getMyProducts() public view returns (Types.Product[] memory) {\n        return getUserProducts();\n    }\n\n    function getSingleProduct(string memory barcodeId_) public view returns (Types.Product memory, Types.ProductHistory memory)\n    {\n        return getSpecificProduct(barcodeId_);\n    }\n\n    function addProduct(Types.Product memory product_, uint256 currentTime_) public onlyManufacturer\n    {\n        addAProduct(product_, currentTime_);\n    }\n\n    function sellProduct( address partyId_, string memory barcodeId_, uint256 currentTime_) public \n    {\n        require(isPartyExists(partyId_), \"Party not found\");\n        Types.UserDetails memory party_ = users[partyId_];\n        sell(partyId_, barcodeId_, party_, currentTime_);\n    }\n\n    function addParty(Types.UserDetails memory user_) public {\n        addparty(user_, msg.sender);\n    }\n\n    function getUserDetails(address id_) public view returns (Types.UserDetails memory)\n    {\n        return getPartyDetails(id_);\n    }\n\n    function getMyDetails() public view returns (Types.UserDetails memory) {\n        return getPartyDetails(msg.sender);\n    }\n\n    function getMyUsersList() public view returns (Types.UserDetails[] memory usersList_)\n    {\n        return getMyPartyList(msg.sender);\n    }\n}\n",
  "sourcePath": "D:\\Final_hack\\smart_contract\\contracts\\SupplyChain.sol",
  "compiler": {
    "name": "solc",
    "version": "0.8.17+commit.8df45f5f.Emscripten.clang"
  },
  "schemaVersion": "3.4.8",
  "updatedAt": "2022-09-17T10:21:09.742Z",
  "networkType": "ethereum",
  "devdoc": {
    "kind": "dev",
    "methods": {},
    "version": 1
  },
  "userdoc": {
    "kind": "user",
    "methods": {},
    "version": 1
  }
}